{
  "contractName": "Election",
  "abi": [
    {
      "inputs": [],
      "payable": false,
      "stateMutability": "nonpayable",
      "type": "constructor"
    },
    {
      "constant": true,
      "inputs": [
        {
          "internalType": "uint256",
          "name": "",
          "type": "uint256"
        }
      ],
      "name": "candidates",
      "outputs": [
        {
          "internalType": "uint256",
          "name": "id",
          "type": "uint256"
        },
        {
          "internalType": "string",
          "name": "name",
          "type": "string"
        },
        {
          "internalType": "uint256",
          "name": "voteCount",
          "type": "uint256"
        }
      ],
      "payable": false,
      "stateMutability": "view",
      "type": "function"
    },
    {
      "constant": true,
      "inputs": [],
      "name": "candidatesCount",
      "outputs": [
        {
          "internalType": "uint256",
          "name": "",
          "type": "uint256"
        }
      ],
      "payable": false,
      "stateMutability": "view",
      "type": "function"
    },
    {
      "constant": true,
      "inputs": [
        {
          "internalType": "address",
          "name": "",
          "type": "address"
        }
      ],
      "name": "voters",
      "outputs": [
        {
          "internalType": "bool",
          "name": "",
          "type": "bool"
        }
      ],
      "payable": false,
      "stateMutability": "view",
      "type": "function"
    },
    {
      "constant": false,
      "inputs": [
        {
          "internalType": "string",
          "name": "_name",
          "type": "string"
        }
      ],
      "name": "addCandidate",
      "outputs": [],
      "payable": false,
      "stateMutability": "nonpayable",
      "type": "function"
    },
    {
      "constant": true,
      "inputs": [],
      "name": "isCommiteeMember",
      "outputs": [
        {
          "internalType": "bool",
          "name": "",
          "type": "bool"
        }
      ],
      "payable": false,
      "stateMutability": "view",
      "type": "function"
    },
    {
      "constant": true,
      "inputs": [],
      "name": "getCommiteeMemberName",
      "outputs": [
        {
          "internalType": "string",
          "name": "",
          "type": "string"
        }
      ],
      "payable": false,
      "stateMutability": "view",
      "type": "function"
    },
    {
      "constant": false,
      "inputs": [
        {
          "internalType": "uint256",
          "name": "_candidate",
          "type": "uint256"
        }
      ],
      "name": "vote",
      "outputs": [],
      "payable": false,
      "stateMutability": "nonpayable",
      "type": "function"
    }
  ],
  "bytecode": "0x608060405234801561001057600080fd5b506040805160808101825260039181019182526241756d60e81b606082015290815260016020808301919091527375b7779c0e422a662e1ff5a68fc06c88b9fcb35160005260028152815180517fe8eac7d9ca21d0ca26b020d11f1bd3d896d8b885543410d207dcc78dab0162e09261008d9284929101906101dc565b506020918201516001918201805460ff19169115159190911790556040805160808101825260059181019182526420b232b2b160d91b606082015290815280830191909152734a2ef3ef56125e6421eef61b2826e0725e55d96c600052600282528051805191927f130d2ca3135efec4cbb7b225d302cd3131596b1d069c55dcffb583bdda2fe1669261012392849201906101dc565b506020918201516001918201805460ff1916911515919091179055604080516080810182526007918101918252662a30b33b32b2bd60c91b606082015290815280830191909152738887601cfb9a23afa779c352ec9395491e4ddd06600052600282528051805191927f150535452e724d293649f6b5ed2c0acc478594a6cac76eda3162a7637f4272b8926101bb92849201906101dc565b50602091909101516001909101805460ff1916911515919091179055610277565b828054600181600116156101000203166002900490600052602060002090601f016020900481019282601f1061021d57805160ff191683800117855561024a565b8280016001018555821561024a579182015b8281111561024a57825182559160200191906001019061022f565b5061025692915061025a565b5090565b61027491905b808211156102565760008155600101610260565b90565b6106c3806102866000396000f3fe608060405234801561001057600080fd5b506004361061007d5760003560e01c8063462e91ec1161005b578063462e91ec1461015e578063a3ec138d14610204578063e02121801461023e578063ed1880bf146102bb5761007d565b80630121b93f146100825780632d35a8a2146100a15780633477ee2e146100bb575b600080fd5b61009f6004803603602081101561009857600080fd5b50356102c3565b005b6100a96103bd565b60408051918252519081900360200190f35b6100d8600480360360208110156100d157600080fd5b50356103c3565b6040518084815260200180602001838152602001828103825284818151815260200191508051906020019080838360005b83811015610121578181015183820152602001610109565b50505050905090810190601f16801561014e5780820380516001836020036101000a031916815260200191505b5094505050505060405180910390f35b61009f6004803603602081101561017457600080fd5b81019060208101813564010000000081111561018f57600080fd5b8201836020820111156101a157600080fd5b803590602001918460018302840111640100000000831117156101c357600080fd5b91908080601f01602080910402602001604051908101604052809392919081815260200183838082843760009201919091525092955061046d945050505050565b61022a6004803603602081101561021a57600080fd5b50356001600160a01b03166104e1565b604080519115158252519081900360200190f35b6102466104f6565b6040805160208082528351818301528351919283929083019185019080838360005b83811015610280578181015183820152602001610268565b50505050905090810190601f1680156102ad5780820380516001836020036101000a031916815260200191505b509250505060405180910390f35b61022a6105cb565b3360009081526001602052604090205460ff1615610328576040805162461bcd60e51b815260206004820152601860248201527f566f7465722068617320616c726561647920566f746564210000000000000000604482015290519081900360640190fd5b600354811115801561033b575060018110155b61038c576040805162461bcd60e51b815260206004820152601a60248201527f496e76616c69642063616e64696461746520746f20566f746521000000000000604482015290519081900360640190fd5b336000908152600160208181526040808420805460ff19168417905593835282905291902060020180549091019055565b60035481565b600060208181529181526040908190208054600180830180548551600293821615610100026000190190911692909204601f810187900487028301870190955284825291949293909283018282801561045d5780601f106104325761010080835404028352916020019161045d565b820191906000526020600020905b81548152906001019060200180831161044057829003601f168201915b5050505050908060020154905083565b6104756105cb565b1515600114156104de57600380546001908101918290556040805160608101825283815260208082018681526000838501819052958652858252929094208151815591518051919492936104cf93908501929101906105f6565b50604082015181600201559050505b50565b60016020526000908152604090205460ff1681565b60606105006105cb565b1515600114156105a85733600090815260026020818152604092839020805484516001821615610100026000190190911693909304601f810183900483028401830190945283835291929083018282801561059c5780601f106105715761010080835404028352916020019161059c565b820191906000526020600020905b81548152906001019060200180831161057f57829003601f168201915b505050505090506105c8565b506040805180820190915260078152666e6f206e616d6560c81b60208201525b90565b3360009081526002602052604081206001015460ff16156105ee575060016105c8565b5060006105c8565b828054600181600116156101000203166002900490600052602060002090601f016020900481019282601f1061063757805160ff1916838001178555610664565b82800160010185558215610664579182015b82811115610664578251825591602001919060010190610649565b50610670929150610674565b5090565b6105c891905b80821115610670576000815560010161067a56fea265627a7a723158200c0ec5aba243c0e652b694af48dfdde45ed0a91132bca32fa05ec8ccf750f68b64736f6c63430005100032",
  "source": "// SPDX-License-Identifier: MIT\r\npragma solidity >=0.4.21 <0.6.0;\r\n\r\ncontract Election {\r\n\r\n  //Structure of candidate standing in the election\r\n  struct Candidate {\r\n    uint id;\r\n    string name;\r\n    uint voteCount;\r\n  }\r\n  struct Commitee {\r\n    string name;\r\n    bool exists;\r\n  }\r\n\r\n  //Storing candidates in a map\r\n  mapping(uint => Candidate) public candidates;\r\n\r\n  //Storing address of those voters who already voted\r\n  mapping(address => bool) public voters;\r\n\r\n\r\n  mapping(address => Commitee) private commitee;\r\n\r\n\r\n  //Number of candidates in standing in the election\r\n  uint public candidatesCount;\r\n\r\n  //Adding 2 candidates during the deployment of contract\r\n  constructor () public {\r\n    commitee[0x75b7779C0e422a662E1fF5a68fC06C88B9FcB351] = Commitee(\"Aum\", true);\r\n    commitee[0x4a2Ef3ef56125e6421eef61B2826E0725E55d96c] = Commitee(\"Adeeb\", true);\r\n    commitee[0x8887601CFB9a23AfA779C352ec9395491e4dDD06] = Commitee(\"Tafveez\", true);\r\n  }\r\n\r\n  //Private function to add a candidate\r\n  function addCandidate (string memory _name) public {\r\n      if(isCommiteeMember() == true) {\r\n        candidatesCount ++;\r\n        candidates[candidatesCount] = Candidate(candidatesCount, _name, 0);\r\n\r\n      }\r\n  }\r\n\r\n  function isCommiteeMember () public view returns(bool) {\r\n      if(commitee[msg.sender].exists) {\r\n          return true;\r\n      }\r\n      else return false;\r\n  }\r\n\r\n  function getCommiteeMemberName () public view returns(string memory) {\r\n    if(isCommiteeMember() == true) {\r\n        return commitee[msg.sender].name;\r\n      }\r\n      return \"no name\";\r\n  }\r\n\r\n  //Public vote function for voting a candidate\r\n  function vote (uint _candidate) public {\r\n    require(!voters[msg.sender], \"Voter has already Voted!\");\r\n    require(_candidate <= candidatesCount && _candidate >= 1, \"Invalid candidate to Vote!\");\r\n    voters[msg.sender] = true;\r\n    candidates[_candidate].voteCount++;\r\n  }\r\n}",
  "sourcePath": "C:\\Users\\Aum Bhatt\\Desktop\\bc\\evm\\contracts\\Election.sol",
  "compiler": {
    "name": "solc",
    "version": "0.5.16+commit.9c3226ce.Emscripten.clang"
  },
  "schemaVersion": "3.4.10",
  "updatedAt": "2022-12-15T11:33:31.703Z",
  "networkType": "ethereum",
  "devdoc": {
    "methods": {}
  },
  "userdoc": {
    "methods": {}
  }
}