{
  "contractName": "Election",
  "abi": [
    {
      "inputs": [],
      "payable": false,
      "stateMutability": "nonpayable",
      "type": "constructor"
    },
    {
      "constant": true,
      "inputs": [
        {
          "internalType": "uint256",
          "name": "",
          "type": "uint256"
        }
      ],
      "name": "candidates",
      "outputs": [
        {
          "internalType": "uint256",
          "name": "id",
          "type": "uint256"
        },
        {
          "internalType": "string",
          "name": "name",
          "type": "string"
        },
        {
          "internalType": "uint256",
          "name": "voteCount",
          "type": "uint256"
        }
      ],
      "payable": false,
      "stateMutability": "view",
      "type": "function"
    },
    {
      "constant": true,
      "inputs": [],
      "name": "candidatesCount",
      "outputs": [
        {
          "internalType": "uint256",
          "name": "",
          "type": "uint256"
        }
      ],
      "payable": false,
      "stateMutability": "view",
      "type": "function"
    },
    {
      "constant": true,
      "inputs": [
        {
          "internalType": "address",
          "name": "",
          "type": "address"
        }
      ],
      "name": "voters",
      "outputs": [
        {
          "internalType": "bool",
          "name": "",
          "type": "bool"
        }
      ],
      "payable": false,
      "stateMutability": "view",
      "type": "function"
    },
    {
      "constant": false,
      "inputs": [
        {
          "internalType": "string",
          "name": "_name",
          "type": "string"
        }
      ],
      "name": "addCandidate",
      "outputs": [
        {
          "internalType": "string",
          "name": "",
          "type": "string"
        }
      ],
      "payable": false,
      "stateMutability": "nonpayable",
      "type": "function"
    },
    {
      "constant": true,
      "inputs": [
        {
          "internalType": "uint256",
          "name": "n",
          "type": "uint256"
        }
      ],
      "name": "getCandidate",
      "outputs": [
        {
          "internalType": "uint256",
          "name": "",
          "type": "uint256"
        },
        {
          "internalType": "string",
          "name": "",
          "type": "string"
        },
        {
          "internalType": "uint256",
          "name": "",
          "type": "uint256"
        }
      ],
      "payable": false,
      "stateMutability": "view",
      "type": "function"
    },
    {
      "constant": true,
      "inputs": [],
      "name": "isCommitteeMember",
      "outputs": [
        {
          "internalType": "bool",
          "name": "",
          "type": "bool"
        }
      ],
      "payable": false,
      "stateMutability": "view",
      "type": "function"
    },
    {
      "constant": true,
      "inputs": [],
      "name": "getCommitteeMemberName",
      "outputs": [
        {
          "internalType": "string",
          "name": "",
          "type": "string"
        }
      ],
      "payable": false,
      "stateMutability": "view",
      "type": "function"
    },
    {
      "constant": false,
      "inputs": [
        {
          "internalType": "uint256",
          "name": "_candidate",
          "type": "uint256"
        }
      ],
      "name": "vote",
      "outputs": [],
      "payable": false,
      "stateMutability": "nonpayable",
      "type": "function"
    }
  ],
  "bytecode": "0x608060405234801561001057600080fd5b50604080516060810182526003805480835283518085018552600b81526a43616e646964617465203160a81b60208281019190915280850191825260008587018190526001938401948590559384528381529490922083518155915180519394929361008493928501929190910190610355565b5060409182015160029091015580516060810182526003805480835283518085018552600b81526a21b0b73234b230ba32901960a91b60208281019190915280850191825260008587018190526001938401948590559384528381529490922083518155915180519394929361010293928501929190910190610355565b5060409182015160029091015580516060810182526003805480835283518085018552600b81526a43616e646964617465203360a81b60208281019190915280850191825260008587018190526001938401948590559384528381529490922083518155915180519394929361018093928501929190910190610355565b50604091820151600291820155815160808101835260039281019283526241756d60e81b606082015291825260016020808401919091527375b7779c0e422a662e1ff5a68fc06c88b9fcb351600052908152815180517fe8eac7d9ca21d0ca26b020d11f1bd3d896d8b885543410d207dcc78dab0162e092610206928492910190610355565b506020918201516001918201805460ff19169115159190911790556040805160808101825260059181019182526420b232b2b160d91b60608201529081528083019190915273b478fe17ba7fc62b1d9878549b579bc41418cbdf600052600282528051805191927ff91042abc9a48fcc946a1f42527ac9ba7cfff031f3bf8edae44ad1d75bbf87409261029c9284920190610355565b506020918201516001918201805460ff1916911515919091179055604080516080810182526007918101918252662a30b33b32b2bd60c91b60608201529081528083019190915273fcec79263448e5ac1938d19879719786fb4de6a8600052600282528051805191927f1c0a7657cbd6d94d918cc0e104399b7b3f921f030de819958abf56f1ced59b1c926103349284920190610355565b50602091909101516001909101805460ff19169115159190911790556103f0565b828054600181600116156101000203166002900490600052602060002090601f016020900481019282601f1061039657805160ff19168380011785556103c3565b828001600101855582156103c3579182015b828111156103c35782518255916020019190600101906103a8565b506103cf9291506103d3565b5090565b6103ed91905b808211156103cf57600081556001016103d9565b90565b610869806103ff6000396000f3fe608060405234801561001057600080fd5b50600436106100885760003560e01c806335b8e8201161005b57806335b8e820146101e6578063462e91ec14610203578063a3ec138d146102a9578063bad04530146102e357610088565b80630121b93f1461008d57806318def840146100ac5780632d35a8a2146101295780633477ee2e14610143575b600080fd5b6100aa600480360360208110156100a357600080fd5b50356102eb565b005b6100b46103e5565b6040805160208082528351818301528351919283929083019185019080838360005b838110156100ee5781810151838201526020016100d6565b50505050905090810190601f16801561011b5780820380516001836020036101000a031916815260200191505b509250505060405180910390f35b6101316104ba565b60408051918252519081900360200190f35b6101606004803603602081101561015957600080fd5b50356104c0565b6040518084815260200180602001838152602001828103825284818151815260200191508051906020019080838360005b838110156101a9578181015183820152602001610191565b50505050905090810190601f1680156101d65780820380516001836020036101000a031916815260200191505b5094505050505060405180910390f35b610160600480360360208110156101fc57600080fd5b503561056a565b6100b46004803603602081101561021957600080fd5b81019060208101813564010000000081111561023457600080fd5b82018360208201111561024657600080fd5b8035906020019184600183028401116401000000008311171561026857600080fd5b91908080601f016020809104026020016040519081016040528093929190818152602001838380828437600092019190915250929550610621945050505050565b6102cf600480360360208110156102bf57600080fd5b50356001600160a01b031661075c565b604080519115158252519081900360200190f35b6102cf610771565b3360009081526001602052604090205460ff1615610350576040805162461bcd60e51b815260206004820152601860248201527f566f7465722068617320616c726561647920566f746564210000000000000000604482015290519081900360640190fd5b6003548111158015610363575060018110155b6103b4576040805162461bcd60e51b815260206004820152601a60248201527f496e76616c69642063616e64696461746520746f20566f746521000000000000604482015290519081900360640190fd5b336000908152600160208181526040808420805460ff19168417905593835282905291902060020180549091019055565b60606103ef610771565b1515600114156104975733600090815260026020818152604092839020805484516001821615610100026000190190911693909304601f810183900483028401830190945283835291929083018282801561048b5780601f106104605761010080835404028352916020019161048b565b820191906000526020600020905b81548152906001019060200180831161046e57829003601f168201915b505050505090506104b7565b506040805180820190915260078152666e6f206e616d6560c81b60208201525b90565b60035481565b600060208181529181526040908190208054600180830180548551600293821615610100026000190190911692909204601f810187900487028301870190955284825291949293909283018282801561055a5780601f1061052f5761010080835404028352916020019161055a565b820191906000526020600020905b81548152906001019060200180831161053d57829003601f168201915b5050505050908060020154905083565b60008181526020818152604080832080546002808301546001938401805486519581161561010002600019011692909204601f8101879004870285018701909552848452606095879593949293919291849183018282801561060d5780601f106105e25761010080835404028352916020019161060d565b820191906000526020600020905b8154815290600101906020018083116105f057829003601f168201915b505050505091509250925092509193909250565b606061062b610771565b151560011415610730576040805160608101825260038054808352602080840187815260008587018190526001938401948590559384528382529490922083518155935180519394936106869392850192919091019061079c565b5060409182015160029182015560035460009081526020818152908390206001908101805485519281161561010002600019011693909304601f810183900483028201830190945283815292908301828280156107245780601f106106f957610100808354040283529160200191610724565b820191906000526020600020905b81548152906001019060200180831161070757829003601f168201915b50505050509050610757565b5060408051808201909152600e81526d2330b4b632b2103a379030b2321760911b60208201525b919050565b60016020526000908152604090205460ff1681565b3360009081526002602052604081206001015460ff1615610794575060016104b7565b5060006104b7565b828054600181600116156101000203166002900490600052602060002090601f016020900481019282601f106107dd57805160ff191683800117855561080a565b8280016001018555821561080a579182015b8281111561080a5782518255916020019190600101906107ef565b5061081692915061081a565b5090565b6104b791905b80821115610816576000815560010161082056fea265627a7a72315820bbcffaf7dc6043614dc237f01a95451dffc0d88fc2f012f6d8b7f9e51facb0b364736f6c63430005100032",
  "source": "// SPDX-License-Identifier: MIT\r\npragma solidity >=0.4.21 <0.6.0;\r\n\r\ncontract Election {\r\n\r\n  //Structure of candidate standing in the election\r\n  struct Candidate {\r\n    uint id;\r\n    string name;\r\n    uint voteCount;\r\n  }\r\n  struct Committee {\r\n    string name;\r\n    bool exists;\r\n  }\r\n\r\n  //Storing candidates in a map\r\n  mapping(uint => Candidate) public candidates;\r\n\r\n  //Storing address of those voters who already voted\r\n  mapping(address => bool) public voters;\r\n\r\n\r\n  mapping(address => Committee) private committee;\r\n\r\n\r\n  //Number of candidates in standing in the election\r\n  uint public candidatesCount;\r\n\r\n  //Adding 2 candidates during the deployment of contract\r\n  constructor () public {\r\n    candidates[++candidatesCount] = Candidate(candidatesCount, \"Candidate 1\", 0);\r\n    candidates[++candidatesCount] = Candidate(candidatesCount, \"Candidate 2\", 0);\r\n    candidates[++candidatesCount] = Candidate(candidatesCount, \"Candidate 3\", 0);\r\n    committee[0x75b7779C0e422a662E1fF5a68fC06C88B9FcB351] = Committee(\"Aum\", true);\r\n    committee[0xb478fe17Ba7Fc62B1D9878549B579bC41418CBDF] = Committee(\"Adeeb\", true);\r\n    committee[0xFCec79263448E5aC1938d19879719786fb4De6a8] = Committee(\"Tafveez\", true);\r\n  }\r\n\r\n  //Private function to add a candidate\r\n  function addCandidate (string memory _name) public returns (string memory){\r\n      if(isCommitteeMember() == true) {\r\n        candidates[++candidatesCount] = Candidate(candidatesCount, _name, 0);\r\n        return candidates[candidatesCount].name;\r\n      }\r\n      return \"Failed to add.\";\r\n  }\r\n\r\n  function getCandidate (uint n) public view returns (uint, string memory, uint){\r\n      return (candidates[n].id, candidates[n].name, candidates[n].voteCount);\r\n  }\r\n\r\n  function isCommitteeMember () public view returns(bool) {\r\n      if(committee[msg.sender].exists) {\r\n          return true;\r\n      }\r\n      else return false;\r\n  }\r\n\r\n  function getCommitteeMemberName () public view returns(string memory) {\r\n    if(isCommitteeMember() == true) {\r\n        return committee[msg.sender].name;\r\n      }\r\n      return \"no name\";\r\n  }\r\n\r\n  //Public vote function for voting a candidate\r\n  function vote (uint _candidate) public {\r\n    require(!voters[msg.sender], \"Voter has already Voted!\");\r\n    require(_candidate <= candidatesCount && _candidate >= 1, \"Invalid candidate to Vote!\");\r\n    voters[msg.sender] = true;\r\n    candidates[_candidate].voteCount++;\r\n  }\r\n}",
  "sourcePath": "C:\\Users\\Aum Bhatt\\Desktop\\bc\\evm\\contracts\\Election.sol",
  "compiler": {
    "name": "solc",
    "version": "0.5.16+commit.9c3226ce.Emscripten.clang"
  },
  "schemaVersion": "3.4.10",
  "updatedAt": "2022-12-15T19:17:17.528Z",
  "networkType": "ethereum",
  "devdoc": {
    "methods": {}
  },
  "userdoc": {
    "methods": {}
  }
}