{
  "contractName": "Election",
  "abi": [
    {
      "inputs": [],
      "payable": false,
      "stateMutability": "nonpayable",
      "type": "constructor"
    },
    {
      "constant": true,
      "inputs": [
        {
          "internalType": "uint256",
          "name": "",
          "type": "uint256"
        }
      ],
      "name": "candidates",
      "outputs": [
        {
          "internalType": "uint256",
          "name": "id",
          "type": "uint256"
        },
        {
          "internalType": "string",
          "name": "name",
          "type": "string"
        },
        {
          "internalType": "uint256",
          "name": "voteCount",
          "type": "uint256"
        }
      ],
      "payable": false,
      "stateMutability": "view",
      "type": "function"
    },
    {
      "constant": true,
      "inputs": [],
      "name": "candidatesCount",
      "outputs": [
        {
          "internalType": "uint256",
          "name": "",
          "type": "uint256"
        }
      ],
      "payable": false,
      "stateMutability": "view",
      "type": "function"
    },
    {
      "constant": true,
      "inputs": [
        {
          "internalType": "address",
          "name": "",
          "type": "address"
        }
      ],
      "name": "voters",
      "outputs": [
        {
          "internalType": "bool",
          "name": "",
          "type": "bool"
        }
      ],
      "payable": false,
      "stateMutability": "view",
      "type": "function"
    },
    {
      "constant": false,
      "inputs": [
        {
          "internalType": "string",
          "name": "_name",
          "type": "string"
        }
      ],
      "name": "addCandidate",
      "outputs": [
        {
          "internalType": "string",
          "name": "",
          "type": "string"
        }
      ],
      "payable": false,
      "stateMutability": "nonpayable",
      "type": "function"
    },
    {
      "constant": true,
      "inputs": [
        {
          "internalType": "uint256",
          "name": "n",
          "type": "uint256"
        }
      ],
      "name": "getCandidate",
      "outputs": [
        {
          "internalType": "uint256",
          "name": "",
          "type": "uint256"
        },
        {
          "internalType": "string",
          "name": "",
          "type": "string"
        },
        {
          "internalType": "uint256",
          "name": "",
          "type": "uint256"
        }
      ],
      "payable": false,
      "stateMutability": "view",
      "type": "function"
    },
    {
      "constant": true,
      "inputs": [],
      "name": "isCommiteeMember",
      "outputs": [
        {
          "internalType": "bool",
          "name": "",
          "type": "bool"
        }
      ],
      "payable": false,
      "stateMutability": "view",
      "type": "function"
    },
    {
      "constant": true,
      "inputs": [],
      "name": "getCommiteeMemberName",
      "outputs": [
        {
          "internalType": "string",
          "name": "",
          "type": "string"
        }
      ],
      "payable": false,
      "stateMutability": "view",
      "type": "function"
    },
    {
      "constant": false,
      "inputs": [
        {
          "internalType": "uint256",
          "name": "_candidate",
          "type": "uint256"
        }
      ],
      "name": "vote",
      "outputs": [],
      "payable": false,
      "stateMutability": "nonpayable",
      "type": "function"
    }
  ],
  "bytecode": "0x608060405234801561001057600080fd5b50604080516060810182526003805480835283518085018552600b81526a43616e646964617465203160a81b60208281019190915280850191825260008587018190526001938401948590559384528381529490922083518155915180519394929361008493928501929190910190610355565b5060409182015160029091015580516060810182526003805480835283518085018552600b81526a21b0b73234b230ba32901960a91b60208281019190915280850191825260008587018190526001938401948590559384528381529490922083518155915180519394929361010293928501929190910190610355565b5060409182015160029091015580516060810182526003805480835283518085018552600b81526a43616e646964617465203360a81b60208281019190915280850191825260008587018190526001938401948590559384528381529490922083518155915180519394929361018093928501929190910190610355565b50604091820151600291820155815160808101835260039281019283526241756d60e81b606082015291825260016020808401919091527375b7779c0e422a662e1ff5a68fc06c88b9fcb351600052908152815180517fe8eac7d9ca21d0ca26b020d11f1bd3d896d8b885543410d207dcc78dab0162e092610206928492910190610355565b506020918201516001918201805460ff19169115159190911790556040805160808101825260059181019182526420b232b2b160d91b606082015290815280830191909152734a2ef3ef56125e6421eef61b2826e0725e55d96c600052600282528051805191927f130d2ca3135efec4cbb7b225d302cd3131596b1d069c55dcffb583bdda2fe1669261029c9284920190610355565b506020918201516001918201805460ff1916911515919091179055604080516080810182526007918101918252662a30b33b32b2bd60c91b606082015290815280830191909152738887601cfb9a23afa779c352ec9395491e4ddd06600052600282528051805191927f150535452e724d293649f6b5ed2c0acc478594a6cac76eda3162a7637f4272b8926103349284920190610355565b50602091909101516001909101805460ff19169115159190911790556103f0565b828054600181600116156101000203166002900490600052602060002090601f016020900481019282601f1061039657805160ff19168380011785556103c3565b828001600101855582156103c3579182015b828111156103c35782518255916020019190600101906103a8565b506103cf9291506103d3565b5090565b6103ed91905b808211156103cf57600081556001016103d9565b90565b610869806103ff6000396000f3fe608060405234801561001057600080fd5b50600436106100885760003560e01c8063462e91ec1161005b578063462e91ec14610186578063a3ec138d146102a1578063e0212180146102db578063ed1880bf146102e357610088565b80630121b93f1461008d5780632d35a8a2146100ac5780633477ee2e146100c657806335b8e82014610169575b600080fd5b6100aa600480360360208110156100a357600080fd5b50356102eb565b005b6100b46103e5565b60408051918252519081900360200190f35b6100e3600480360360208110156100dc57600080fd5b50356103eb565b6040518084815260200180602001838152602001828103825284818151815260200191508051906020019080838360005b8381101561012c578181015183820152602001610114565b50505050905090810190601f1680156101595780820380516001836020036101000a031916815260200191505b5094505050505060405180910390f35b6100e36004803603602081101561017f57600080fd5b5035610495565b61022c6004803603602081101561019c57600080fd5b8101906020810181356401000000008111156101b757600080fd5b8201836020820111156101c957600080fd5b803590602001918460018302840111640100000000831117156101eb57600080fd5b91908080601f01602080910402602001604051908101604052809392919081815260200183838082843760009201919091525092955061054c945050505050565b6040805160208082528351818301528351919283929083019185019080838360005b8381101561026657818101518382015260200161024e565b50505050905090810190601f1680156102935780820380516001836020036101000a031916815260200191505b509250505060405180910390f35b6102c7600480360360208110156102b757600080fd5b50356001600160a01b0316610687565b604080519115158252519081900360200190f35b61022c61069c565b6102c7610771565b3360009081526001602052604090205460ff1615610350576040805162461bcd60e51b815260206004820152601860248201527f566f7465722068617320616c726561647920566f746564210000000000000000604482015290519081900360640190fd5b6003548111158015610363575060018110155b6103b4576040805162461bcd60e51b815260206004820152601a60248201527f496e76616c69642063616e64696461746520746f20566f746521000000000000604482015290519081900360640190fd5b336000908152600160208181526040808420805460ff19168417905593835282905291902060020180549091019055565b60035481565b600060208181529181526040908190208054600180830180548551600293821615610100026000190190911692909204601f81018790048702830187019095528482529194929390928301828280156104855780601f1061045a57610100808354040283529160200191610485565b820191906000526020600020905b81548152906001019060200180831161046857829003601f168201915b5050505050908060020154905083565b60008181526020818152604080832080546002808301546001938401805486519581161561010002600019011692909204601f810187900487028501870190955284845260609587959394929391929184918301828280156105385780601f1061050d57610100808354040283529160200191610538565b820191906000526020600020905b81548152906001019060200180831161051b57829003601f168201915b505050505091509250925092509193909250565b6060610556610771565b15156001141561065b576040805160608101825260038054808352602080840187815260008587018190526001938401948590559384528382529490922083518155935180519394936105b19392850192919091019061079c565b5060409182015160029182015560035460009081526020818152908390206001908101805485519281161561010002600019011693909304601f8101839004830282018301909452838152929083018282801561064f5780601f106106245761010080835404028352916020019161064f565b820191906000526020600020905b81548152906001019060200180831161063257829003601f168201915b50505050509050610682565b5060408051808201909152600e81526d2330b4b632b2103a379030b2321760911b60208201525b919050565b60016020526000908152604090205460ff1681565b60606106a6610771565b15156001141561074e5733600090815260026020818152604092839020805484516001821615610100026000190190911693909304601f81018390048302840183019094528383529192908301828280156107425780601f1061071757610100808354040283529160200191610742565b820191906000526020600020905b81548152906001019060200180831161072557829003601f168201915b5050505050905061076e565b506040805180820190915260078152666e6f206e616d6560c81b60208201525b90565b3360009081526002602052604081206001015460ff16156107945750600161076e565b50600061076e565b828054600181600116156101000203166002900490600052602060002090601f016020900481019282601f106107dd57805160ff191683800117855561080a565b8280016001018555821561080a579182015b8281111561080a5782518255916020019190600101906107ef565b5061081692915061081a565b5090565b61076e91905b80821115610816576000815560010161082056fea265627a7a72315820cb99279266123ef8c46d5846299bff03b1e146e4602003235c04079f485df26064736f6c63430005100032",
  "source": "// SPDX-License-Identifier: MIT\r\npragma solidity >=0.4.21 <0.6.0;\r\n\r\ncontract Election {\r\n\r\n  //Structure of candidate standing in the election\r\n  struct Candidate {\r\n    uint id;\r\n    string name;\r\n    uint voteCount;\r\n  }\r\n  struct Commitee {\r\n    string name;\r\n    bool exists;\r\n  }\r\n\r\n  //Storing candidates in a map\r\n  mapping(uint => Candidate) public candidates;\r\n\r\n  //Storing address of those voters who already voted\r\n  mapping(address => bool) public voters;\r\n\r\n\r\n  mapping(address => Commitee) private commitee;\r\n\r\n\r\n  //Number of candidates in standing in the election\r\n  uint public candidatesCount;\r\n\r\n  //Adding 2 candidates during the deployment of contract\r\n  constructor () public {\r\n    candidates[++candidatesCount] = Candidate(candidatesCount, \"Candidate 1\", 0);\r\n    candidates[++candidatesCount] = Candidate(candidatesCount, \"Candidate 2\", 0);\r\n    candidates[++candidatesCount] = Candidate(candidatesCount, \"Candidate 3\", 0);\r\n    commitee[0x75b7779C0e422a662E1fF5a68fC06C88B9FcB351] = Commitee(\"Aum\", true);\r\n    commitee[0x4a2Ef3ef56125e6421eef61B2826E0725E55d96c] = Commitee(\"Adeeb\", true);\r\n    commitee[0x8887601CFB9a23AfA779C352ec9395491e4dDD06] = Commitee(\"Tafveez\", true);\r\n  }\r\n\r\n  //Private function to add a candidate\r\n  function addCandidate (string memory _name) public returns (string memory){\r\n      if(isCommiteeMember() == true) {\r\n        candidates[++candidatesCount] = Candidate(candidatesCount, _name, 0);\r\n        return candidates[candidatesCount].name;\r\n      }\r\n      return \"Failed to add.\";\r\n  }\r\n\r\n  function getCandidate (uint n) public view returns (uint, string memory, uint){\r\n      return (candidates[n].id, candidates[n].name, candidates[n].voteCount);\r\n  }\r\n\r\n  function isCommiteeMember () public view returns(bool) {\r\n      if(commitee[msg.sender].exists) {\r\n          return true;\r\n      }\r\n      else return false;\r\n  }\r\n\r\n  function getCommiteeMemberName () public view returns(string memory) {\r\n    if(isCommiteeMember() == true) {\r\n        return commitee[msg.sender].name;\r\n      }\r\n      return \"no name\";\r\n  }\r\n\r\n  //Public vote function for voting a candidate\r\n  function vote (uint _candidate) public {\r\n    require(!voters[msg.sender], \"Voter has already Voted!\");\r\n    require(_candidate <= candidatesCount && _candidate >= 1, \"Invalid candidate to Vote!\");\r\n    voters[msg.sender] = true;\r\n    candidates[_candidate].voteCount++;\r\n  }\r\n}",
  "sourcePath": "C:\\Users\\Aum Bhatt\\Desktop\\bc\\evm\\contracts\\Election.sol",
  "compiler": {
    "name": "solc",
    "version": "0.5.16+commit.9c3226ce.Emscripten.clang"
  },
  "schemaVersion": "3.4.10",
  "updatedAt": "2022-12-15T18:21:55.252Z",
  "networkType": "ethereum",
  "devdoc": {
    "methods": {}
  },
  "userdoc": {
    "methods": {}
  }
}